:030000000208A84B
:0C08A800787FE4F6D8FD75810702084453
:06087D0012088375B006AD
:10088300E4FDFCC3ED9FEC9E501A758901758CFC49
:10089300758A66D28C308DFDC28CE4F58A0DBD005D
:0408A300010C80DFE5
:0108A700222E
:10080000AB07AA06209103309039EB64014A7015BA
:1008100075B00C7FD07E0712087D75B00312088377
:1008200075B0098019EB64024A70D975B0097FD0A0
:100830007E0712088375B00312087D75B00C12088C
:040840008380C122CE
:10084400D290C290D291C29130900530910280062C
:10085400209008209105E4F5B080ED3090072091B8
:10086400047F01800820900C3091097F027E0012E1
:09087400080080D4E4F5B080CF47
:00000001FF
